:1000000012C02CC02BC02AC029C028C027C026C0BF
:1000100025C024C023C022C021C020C01FC01EC0D4
:100020001DC01CC01BC011241FBECFE5D4E0DEBF25
:10003000CDBF10E0A0E6B0E0E6EAF2E002C0059035
:100040000D92A236B107D9F720E0A2E6B0E001C0D8
:100050001D92A236B207E1F7C7D023C1D1CF0895D0
:1000600087E081BB84E082BB14BA80E385BB08953E
:1000700087B93E9A3D98329A379A369A3699FECF8A
:1000800024B185B190E0982F8827820F911D0895A3
:1000900018161906FCF4909AE0EEF0E03197F1F7AB
:1000A00000C000009098E5EAFEE03197F1F700C04B
:1000B0000000919AECE0F2E03197F1F700C0000007
:1000C0009198E5EAFEE03197F1F700C00000019752
:1000D000009709F7089518161906FCF4909AECE0B9
:1000E000F2E03197F1F700C000009098E5EAFEE0F9
:1000F0003197F1F700C00000919AE0EEF0E03197FF
:10010000F1F700C000009198E5EAFEE03197F1F7C1
:1001100000C000000197009709F708951816190606
:10012000FCF4909AECE0F2E03197F1F700C00000A7
:100130009098E5EAFEE03197F1F700C00000919A4F
:10014000ECE0F2E03197F1F700C000009198E5EAA9
:10015000FEE03197F1F700C000000197009709F722
:10016000089518161906FCF4909AE0EEF0E0319725
:10017000F1F700C000009098E5EAFEE03197F1F752
:1001800000C00000919AE0EEF0E03197F1F700C076
:1001900000009198E5EAFEE03197F1F700C0000019
:1001A0000197009709F70895CF93DF9388E190E0D6
:1001B00092DF85E090E05CDFEC0184E090E058DFC6
:1001C0008C179D0724F48CE190E0A8DF0AC0C817C3
:1001D000D90724F480E290E0C4DF03C08CE190E012
:1001E0009DDFDF91CF9108953ADF3ADF82B38360DC
:1001F00082BB86E791E00197F1F700C0000082B36F
:100200008C7F82BB8EE693E10197F1F700C000007E
:1002100085E090E02DDF89E698E10197F1F700C0D5
:10022000000085E090E024DFEC0184E090E020DF36
:100230008C0183E090E01CDF209160003091610030
:10024000821793070CF4B0DF84E090E011DF409751
:100250002CF485E090E00CDF4097ECF20C171D07C2
:1002600064F4C01BD10B279724F081E090E056DFA7
:10027000D2CF81E090E00CDFCECFC017D1076CF475
:100280000C1B1D0B0730110524F081E090E069DFA5
:10029000C2CF81E090E0FCDEBECF81E090E0F8DEEE
:0602A000BACFF894FFCF75
:0202A6000C004A
:00000001FF
